:020000040800F2
:10000000B0040020C1010008512400085324000856
:10001000572400085B2400085F240008000000004B
:10002000000000000000000000000000652400083F
:100030006324000800000000672400086924000809
:10004000DB010008DB010008DB010008DB01000820
:10005000DB010008DB010008DB010008DB01000810
:10006000DB010008DB010008DB010008DB01000800
:10007000DB010008DB010008DB010008DB010008F0
:10008000DB010008DB010008DB010008DB010008E0
:10009000DB010008DB010008DB010008DB010008D0
:1000A000DB010008DB010008DB010008DB010008C0
:1000B000DB010008DB010008DB010008DB010008B0
:1000C000DB010008DB010008DB010008DB010008A0
:1000D000DB010008DB010008DB010008DB01000890
:1000E000DB010008DB010008DB010008DB01000880
:1000F000DB010008DB010008DB010008DB01000870
:10010000DB010008DB010008DB010008DB0100085F
:10011000DB010008DB010008DB010008DB0100084F
:10012000DB010008DB010008DB010008DB0100083F
:10013000DB010008DB010008DB010008DB0100082F
:10014000DB010008DB010008DB010008DB0100081F
:10015000DB010008DB010008DB010008DB0100080F
:10016000DB010008DB010008DB010008DB010008FF
:10017000DB010008DB010008DB010008DB010008EF
:10018000DB010008DB010008DB010008DB010008DF
:10019000DB010008DB010008DB010008DB010008CF
:1001A000DB010008DB010008DB010008DFF80CD0F0
:1001B00003F0E0F800480047DD210008B00400200B
:1001C0000648804706480047FEE7FEE7FEE7FEE7F1
:1001D000FEE7FEE7FEE7FEE7FEE7FEE7F5020008C2
:1001E000AD0100080CB50020019000908348006824
:1001F00040F480308149086000BF8048006800F406
:10020000003000900198401C0190009818B90198A6
:10021000B0F5A04FF1D17948006800F4003010B17A
:100220000120009001E0002000900098012860D19A
:1002300072484030006840F080507049403108609A
:100240006F48006840F440406D4908606B480830D2
:1002500000686A49083108600846006840F40040B8
:1002600008600846006840F4A05008606548091F0F
:100270000860081F006840F08070091F086000BF18
:100280005E48006800F000700028F9D05C48006803
:1002900040F480305A49086000BF5948406800F473
:1002A00080300028F9D05648006840F400305449A6
:1002B000086000BF5248406800F400300028F9D0C0
:1002C00040F20570504908604C480830006820F042
:1002D00003004A49083108600846006840F00200FF
:1002E000086000BF45480830006800F00C0008288E
:1002F000F8D10CBD10B54548006840F47000434982
:1003000008603E48006840F001003C490860002059
:100310003A4908310860394800683D490840374982
:1003200008603C48091D0860081F006820F4802010
:10033000091F0860002031490C310860FFF752FFA7
:100340004FF0006031498039086010BD70B5002061
:100350000022022300240221284D08352D6805F0D3
:100360000C0020B1042806D0082834D107E02A4D1B
:100370002A4E356033E02A4D284E35602FE01F4D60
:100380002D1D2D68C5F380541C4D2D1D2D6805F0C5
:100390003F0154B1224DB5FBF1F5184E361D3668BC
:1003A000C6F3881605FB06F209E01B4DB5FBF1F517
:1003B000124E361D3668C6F3881605FB06F20F4D41
:1003C0002D1D2D68C5F301456D1C6B00B2FBF3F5C7
:1003D000124E356003E0104D104E356000BF00BF77
:1003E000064D08352D68C5F303150E4E705D0B4D97
:1003F0002D68C540094E356070BD000000380240D0
:1004000000700040195A4007003C024088ED00E0AF
:10041000FFFFF6FE103000240024F400000000204E
:1004200040787D010400002032490143324A1160C6
:10043000704770B5002100230F22C4781CB32E4CE6
:10044000246804F4E064C4F5E064C4F30721C1F156
:100450000404E3B20A4144789C40E1B28478144039
:1004600021430C07210E254C05786155047804F0D2
:100470001F050124AC4005786D11AD0005F1E025A4
:10048000C5F8004109E0047804F01F050124AC40E0
:100490001B4D0678761145F8264070BD194A0A4072
:1004A0000243154B1B1F1A60704739B1124A121DC7
:1004B00012680243104B1B1D1A6006E00E4A121D03
:1004C000126882430C4B1B1D1A607047042808D128
:1004D0004FF0E021096941F004014FF0E022116181
:1004E00007E04FF0E021096921F004014FF0E0221C
:1004F000116170470000FA050CED00E000E400E037
:1005000080E100E080FFFF1F30B943F2DB02810091
:10051000A1F1C0410A6005E043F2D2028100A1F1DD
:10052000C0410A606FF07042411C8900A1F1C041D6
:100530000A608100A1F1C041C1F80421704710B5E3
:100540000022002103689B00A3F1C0431968FE4B01
:100550001940D0E901342343C46823430469234389
:100560004469234384692343C4692343046A2343BE
:10057000446A2343846A2343C46A2343046B2343AA
:10058000446B2343194303689B00A3F1C0431960E4
:100590008368082B0BD103689B00A3F1C0431B6841
:1005A00043F0400403689B00A3F1C0431C60436B0D
:1005B000B3F5801F19D10368BBB14FF020435B68CE
:1005C00023F470024FF020431B68446B23434FF029
:1005D0002044236023461B6843F480732360836BAD
:1005E0001B8A5B1E42EA03536360836B1B68846B48
:1005F000646843EA0413846BA46843EA0423846BAD
:10060000A48943EA0443846B248A43EA0453846B39
:10061000247D43EA0463846BA46923430468641C57
:10062000A400A4F1C0442360836AB3F5804F1BD1BA
:10063000C36B1B68C46B646843EA0413C46BA4688F
:1006400043EA0423C46B248A43EA0453C46B247D25
:1006500043EA0463C46BA46923430468A400A4F1BF
:10066000C044C4F8043107E06FF0704403689B0095
:10067000A3F1C043C3F8044110BD00210160022171
:100680004160002181601021C16000210161C162CF
:1006900041618161C1614FF4805101624900416251
:1006A0000021816201634163A8498163C16370478E
:1006B00051B18200A2F1C042126842F001038200EF
:1006C000A2F1C042136009E08200A2F1C0421268A8
:1006D0009F4B1A408300A3F1C0431A607047102853
:1006E0000AD118214FF020421166402151664FF087
:1006F000FC319166D16610E01821964A11604021C4
:100700004FF02042C2F884104FF0FC31914A083279
:1007100011604FF02042C2F88C10704730B50021B4
:10072000002200230468102C03D14FF02044216ED6
:1007300001E0884C2168884C2140446844F008045A
:1007400085682C43C5682C4305692C43456944EAF8
:100750004524856944EA453421430468102C03D1BB
:100760004FF02044A26E02E07A4C08342268002246
:10077000C4692468C5696D6844EA0524C5692D8982
:1007800044EA0544C5692D7B44EA056422430468B4
:10079000102C03D14FF02044E36E02E06D4C0C347A
:1007A00023680023046A2468056A6D6844EA052406
:1007B000056A2D8944EA0544056A2D7B44EA0564EF
:1007C00023430468102C05D14FF020442166A26613
:1007D000E36608E05F4C21604FF02044C4F88820B5
:1007E0005C4C0C34236030BD10210160002141605D
:1007F000102181600021C160016141618161FC21A2
:10080000C2691160C2695160C2699160C269D160F8
:10081000026A1160026A5160026A9160026AD160E4
:10082000704799B1102808D14FF02042126E42F063
:1008300004024FF020431A661DE0464A126842F057
:1008400004024FF02043C3F8802014E0102809D19F
:100850004FF02042126E3E4BDB1E1A404FF02043F9
:100860001A6608E03B4A1268394BDB1E1A404FF00B
:100870002043C3F88020704799B1102808D14FF069
:100880002042126E42F040024FF020431A661DE0F3
:10089000304A126842F040024FF02043C3F88020F3
:1008A00014E0102809D14FF02042126E284B3F3B34
:1008B0001A404FF020431A6608E0264A1268244B7B
:1008C0003F3B1A404FF02043C3F880207047014659
:1008D0000020102903D14FF02042506F02E01D4A42
:1008E00014321068704718201A492031086000201F
:1008F0000906C1F8A4004FF0FC3016492831086001
:10090000091D0860091D0860704770B500210022AC
:10091000002300240F4D20352968104D294005681B
:1009200045F01005466845EA4625866845EA46359D
:1009300029434FF02045C5F8A010064D28352A68F8
:100940000022C5682D680BE08000E7FFD436000860
:10095000FEFF0F00800000A08101F0FFCD01FEFF2F
:10096000C668766845EA0625C668368945EA0645BA
:10097000C668367B45EA06652A434FF02045C5F830
:10098000A820F94D2B68002305692D680669766853
:1009900045EA06250669368945EA06450669367B35
:1009A00045EA06652B434FF02045C5F8AC30EE4DC7
:1009B0002D1D2C68002445692D684669766845EA36
:1009C00006254669368945EA06454669367B45EA85
:1009D00006652C434FF02045C5F8B04070BD00219E
:1009E000016041608160FC21C2681160C268516091
:1009F000C2689160C268D160026911600269516089
:100A0000026991600269D160426911604269516076
:100A1000426991604269D160704748B1D2490C394E
:100A2000096841F004014FF02042C2F8A01008E02C
:100A3000CD490C390968CD4A11404FF02042C2F827
:100A4000A01070474FF434728100A1F1C041C1F889
:100A500040216FF07042C4499C3141F820200021B0
:100A6000C14AA43211605206C2F85411BE4AAC32D7
:100A70001160704770B50022002100230024056832
:100A8000AD00A5F1C045D5F840216FF30E02D0E9C5
:100A900001563543C66835430669354346693543D3
:100AA00086693543C6693543066A3543466A354328
:100AB0002A43056835B90568AD00A5F1C045C5F8FC
:100AC000402113E0A84D94352B686FF30E03D0E955
:100AD00007563543466A35432B43A34D94352B6067
:100AE0000568AD00A5F1C045C5F84021056875BB96
:100AF0009D4D9C35066855F8261001F07041856AB9
:100B00002D686D1E866A7668761E45EA0616856A29
:100B1000AD686D1E46EA0526856AED686D1E46EADB
:100B20000536856A2D8A6D1E46EA0546856AAD8AB8
:100B30006D1E46EA0556856A2D7E6D1E46EA0565E0
:100B40002943894D9C35066845F8261032E0FFE7B9
:100B5000854D9C35066855F8261001F07041856A70
:100B60002D686D1E866A7668761E45EA0616856AC9
:100B7000AD686D1E46EA0526856A2D8A6D1E46EA19
:100B800005452943784D9C352C6804F07044856AEE
:100B9000ED686D1E2E03856AAD8A6D1E46EA055509
:100BA0002C434FF02045C5F848416F4D9C350668F1
:100BB00045F8261070BD0021016041608160102160
:100BC000C160402101618021416189008161002172
:100BD000C161016241621021826A1160826A5160C2
:100BE000826A9160826AD160826A1161826A51610F
:100BF000826A916170470021D0E900231A4383681B
:100C00005B1E42EA4312C36842EA4321564AA432B9
:100C1000116070470146002029B9534AAC3212686E
:100C200002F0060005E0504AAC32126802F01802E9
:100C3000900870474C49A831096841EA40014FF0DB
:100C40002042C2F8541170474749A431096841EA6B
:100C500040114FF02042C2F85011704761B182003C
:100C6000A2F1C042D2F8402142F400738200A2F106
:100C7000C042C2F840310CE08200A2F1C042D2F87A
:100C8000402147F6FF531A408300A3F1C043C3F845
:100C90004021704710B552B3102807D14FF02043C0
:100CA0005B6E0B434FF0204463664AE0B0F5807FF3
:100CB00008D12D4B283B1B680B434FF02044C4F850
:100CC00084303EE0B0F5805F08D1274B083B1B68BD
:100CD0000B434FF02044C4F8A43032E0224BA83339
:100CE0001B680B434FF02044C4F8543129E010280E
:100CF00007D14FF020435B6E8B434FF02044636677
:100D00001FE0B0F5807F08D1174B283B1B688B4351
:100D10004FF02044C4F8843013E0B0F5805F08D170
:100D2000114B083B1B688B434FF02044C4F8A430A0
:100D300007E00D4BA8331B688B434FF02044C4F8E9
:100D4000543110BD10B5024600200023102A03D1F3
:100D50004FF02044636E14E0B2F5807F08D1024C5E
:100D6000283C23680DE00000AC0000A0FBFF0F0052
:100D7000B2F5805F02D14B4C236802E0494CB43499
:100D8000236803EA01048C4201D0002000E0012026
:100D900010BD102807D14FF02042526E8A434FF009
:100DA00020435A661EE0B0F5807F08D13D4A203AC4
:100DB00012688A434FF02043C3F8842012E0B0F554
:100DC000805F07D1374A12688A434FF02043C3F847
:100DD000A42007E0334AB03212688A434FF0204320
:100DE000C3F854217047F0B50246002000230024C8
:100DF00000250026102A03D14FF020477B6E12E019
:100E0000B2F5807F03D1274F203F3B680BE0B2F55E
:100E1000805F02D1234F3B6805E0224FB0373B682B
:100E2000FF06D7F8584103EA01060AB1012A02D1A8
:100E300004F0010501E003EAD10515B10EB101206E
:100E400000E00020F0BD102808D14FF02042526E83
:100E500022EAD1024FF020435A6621E0B0F5807FAC
:100E600009D1104A203A126822EAD1024FF02043F9
:100E7000C3F8842014E0B0F5805F08D1094A1268F5
:100E800022EAD1024FF02043C3F8A42008E0054A2B
:100E9000B032126842F001024FF02043C3F85421EF
:100EA00070470000A40000A010B504469848844292
:100EB00008D10121084600F087FB0021012000F045
:100EC00083FB76E09348844208D10121022000F0A0
:100ED0007BFB0021022000F077FB6AE08E48844211
:100EE00008D10121042000F06FFB0021042000F054
:100EF0006BFB5EE08948844208D10121082000F0A4
:100F000063FB0021082000F05FFB52E0844884422C
:100F100008D10121102000F057FB0021102000F023
:100F200053FB46E07F48844208D10121202000F095
:100F30004BFB0021202000F047FB3AE07A48844236
:100F400008D10121402000F03FFB0021402000F0AB
:100F50003BFB2EE07548844208D10121802000F03F
:100F600033FB0021802000F02FFB22E070488442F8
:100F700008D10121801500F027FB0021A01500F009
:100F800023FB16E06B48844208D10121401500F094
:100F90001BFB0021601500F017FB0AE06648844245
:100FA00007D10121001500F00FFB0021201500F0F2
:100FB0000BFB10BDF0B50A4600210023002400BF42
:100FC0003DE0012505FA01F3156805EA03049C429A
:100FD00034D105684F000326BE40B543056015793E
:100FE0004E00B5400668354305601579012D02D0E5
:100FF0001579022D16D185684F000326BE40B543F2
:10100000856055794E00B5408668354385604568F2
:1010100001268E40B5434560456896798E40B6B24C
:1010200035434560C5684F000326BE40B543C560E3
:10103000D5794E00B540C6683543C560491C1029B6
:10104000BFD3F0BD4FF6FF71016000210171417106
:101050008171C171704708B54FF480320092009AD7
:101060000A430092009AC261C161009AC261C269DA
:101070000092C269009208BD0246002013690B402D
:101080000BB1012000E0002070470146086980B2E2
:1010900070470246002053690B400BB1012000E06D
:1010A000002070470146486980B27047018370474D
:1010B000418370470AB1018300E041837047416179
:1010C000704742694A4042617047F0B500230024EE
:1010D0004D07ED0E02FA05F3CE1000F1200555F88C
:1010E00026504E07F70E0F26BE40B543CF1000F135
:1010F000200646F82750CE1000F1200555F826505E
:1011000045EA0304CE1000F1200545F82640F0BD65
:10111000000002400004024000080240000C0240AF
:10112000001002400014024000180240001C02405F
:10113000002002400024024000280240F6480068D7
:1011400040F00100F44908600020F34908310860CC
:10115000F1480068F1490840EF490860F048091D6E
:101160000860F048EC4984310860ED481038091DEA
:101170000860E948006820F48020E7490860002002
:10118000E5490C310860E4498C3108607047002162
:10119000E14A921C117011460870704710B5014663
:1011A0000022002300204A11012A02D1DA4C2368D0
:1011B00008E0022A03D1D84C7034236802E0D64CF0
:1011C0007434236801F01F02012494401C400CB1C8
:1011D000012000E0002010BD38B500200090002460
:1011E000002500BF3120FFF7D9FF05460098401CBD
:1011F00000900098B0F5A04F01D0002DF2D0312022
:10120000FFF7CCFF08B1012400E00024204638BDE0
:1012100001460020C04A106820F0F80040EAC100F2
:1012200010607047C049086070470021BA4A7032A8
:1012300011701170012802D004280AD104E00121A4
:10124000B54A7032117005E00521B34A7032117051
:1012500000E000BF00BF7047B4490860704770B538
:10126000049C41EA82150126C6EB530645EA064571
:10127000054345EA0465A84E361D356070BDAA4990
:101280000866704710B5830143EA016343EA0273BD
:10129000A14C8434236010BDA3498866704710B503
:1012A000830143EA016343EA02739B4C8834236061
:1012B00010BD9D49086770479B49C8647047024646
:1012C0000020954B0833186820F0EC6042EA0103D7
:1012D0001843914B083318607047024600208E4B2C
:1012E0000833186820F0784042EA010318438A4B1B
:1012F00008331860704701460020874A083210689A
:1013000020F00300084310607047834808300068ED
:1013100000F00C007047014600207F4A0832106838
:1013200020F0F000084310607047014600207A4A20
:101330000832106820F4E0500843106070470146FE
:101340000020754A0832106820F4604040EAC1006D
:1013500010607047F0B5002100220024022500260D
:1013600002236D4F08373F6807F00C0121B10429B3
:1013700005D0082937D105E06D4F076036E06D4F85
:10138000076033E0644F3F1D3F68C7F38056624FEC
:101390003F1D3F6807F03F036EB1664FB7FBF3F7A1
:1013A000DFF874C10CF1040CDCF800C0CCF3881C2D
:1013B00007FB0CF40CE05E4FB7FBF3F7DFF858C106
:1013C0000CF1040CDCF800C0CCF3881C07FB0CF417
:1013D000514F3F1D3F68C7F301477F1C7D00B4FBA1
:1013E000F5F7076002E0524F076000BF00BF4A4FA9
:1013F00008373F6807F0F00109094F4F7A5C07682A
:10140000D7404760444F08373F6807F4E051890AE6
:10141000494F7A5C4768D74087603F4F08373F683D
:1014200007F46041490B444F7A5C4768D740C76076
:10143000F0BD002100F44072B2F5407F0AD1364A77
:101440000832116821F4F8113C4A02401143324A33
:1014500008321160304A70321268C0F30B031A432D
:101460002D4B70331A60704730494439086070471B
:101470002E4940390860704731490860704701467D
:101480000020254A8C32106820F440100843106078
:10149000704701460020204A8C32106820F440003A
:1014A000084310607047014600201B4A8C321068C8
:1014B00020F01F004A1E1043174A8C3210607047FC
:1014C00001460020144A8C32106820F4F8504A1E5D
:1014D00040EA0220104A8C3210607047014600201A
:1014E0000D4A8C32106820F4403008431060704779
:1014F00014490860704739B1074A30321268024314
:10150000054B30331A6006E0034A303212688243DA
:10151000014B30331A60704700380240FFFFF6EA93
:10152000103000240030002000004742800E474267
:101530000024F40040787D0114000020FFFCFF0F20
:101540005C014742E011474229B1934A12680243C5
:10155000914B1A6004E0904A126882438E4B1A60E5
:10156000704739B18C4A121D126802438A4B1B1D09
:101570001A6006E0884A121D12688243864B1B1DC2
:101580001A60704739B1844A0C3212680243824BA8
:101590000C331A6006E0804A0C32126882437E4B9C
:1015A0000C331A60704739B17B4A1032126802431B
:1015B000794B10331A6006E0774A10321268824382
:1015C000754B10331A60704739B1734A243A126868
:1015D0000243714B243B1A6006E06F4A243A1268BA
:1015E00082436D4B243B1A60704739B16A4A203AF6
:1015F00012680243684B203B1A6006E0664A203AB4
:1016000012688243644B203B1A60704739B1624ACA
:101610001C3A12680243604B1C3B1A6006E05E4AAB
:101620001C3A126882435C4B1C3B1A60704739B10C
:10163000594A143A12680243574B143B1A6006E0A9
:10164000554A143A12688243534B143B1A60704750
:1016500039B1514A103A126802434F4B103B1A609D
:1016600006E04D4A103A126882434B4B103B1A6019
:10167000704739B1484A1C3212680243464B1C334A
:101680001A6006E0444A1C3212688243424B1C3303
:101690001A60704739B1404A2032126802433E4B0B
:1016A00020331A6006E03C4A2032126882433A4BEB
:1016B00020331A60704739B1374A24321268024326
:1016C000354B24331A6006E0334A243212688243D1
:1016D000314B24331A60704739B12F4A2C321268CB
:1016E00002432D4B2C331A6006E02B4A2C32126831
:1016F0008243294B2C331A60704739B1264A303265
:1017000012680243244B30331A6006E0224A30321A
:1017100012688243204B30331A607047012808D189
:101720001D493C31096841F008011B4A3C321160F7
:1017300007E019493C31096821F00801164A3C329A
:101740001160704739B1144A273A12780243124B9C
:10175000273B1A7006E0104A273A127882430E4B54
:10176000273B1A7070470C484030006840F080708A
:10177000094940310860704701460020064A283A6E
:1017800012680A400AB1012000E0002070470249B7
:1017900026390870704700003438024010B50446FE
:1017A000FB48844208D101218014FFF751FF00213A
:1017B000A014FFF74DFF3CE0F648844208D1012118
:1017C0000014FFF734FF00212014FFF730FF30E052
:1017D000F148844208D10121C013FFF728FF0021FE
:1017E000E013FFF724FF24E0EC48844208D10121F4
:1017F0004014FFF72DFF00216014FFF729FF18E0C8
:10180000E748844209D101210805FFF721FF0021A3
:101810004FF48010FFF71CFF0BE0E248844208D130
:1018200001214805FFF714FF00214FF40010FFF7D6
:101830000FFF10BD10B50022028802F441520B8840
:101840004C8823438C882343CC8823430C8923432F
:101850004C8923438C892343CC8923431A43028038
:10186000838B4FF2FF74234083830B8A038210BD66
:101870002DE9F04F0025022300244FF0010900223A
:101880000026002794469046B0F81CA04FF2400B6B
:101890000AEA0B0AA0F81CA04FF0020AA0F820A048
:1018A000858BD1F808A0BAF1020F01D100BF82E008
:1018B000B1F804A0BAF1000F02D14FF0010901E024
:1018C0004FF00209DFF8E0A2DAF800A00AF4000AFB
:1018D000BAF1000F09D0DFF8D0A2DAF800A02AF49C
:1018E000000ADFF8C4B2CBF800A0DFF8BCA20AF10E
:1018F0007C0ADAF800A0CAF3881CDFF8ACA20AF16F
:101900007C0ADAF800A0CAF30278DFF89CA2AAF1F8
:10191000040ADAF800A00AF03F07DFF88CA2AAF167
:10192000040ADAF800A00AF4800ABAF5800F08D198
:10193000DFF878A2BAFBF7FA0AFB0CFABAFBF8F662
:1019400007E0DFF86CA2BAFBF7FA0AFB0CFABAFB65
:10195000F8F6B1F806A0BAF5007F0ED14FEA162AC4
:101960000AEB8A0A4FEA4A0AD1F808B0BAFBFBFA36
:101970000AF1050A1FFA8AF20FE04FEA491AB6FB8C
:10198000FAFA0AEB8A0A4FEA4A0AD1F808B0BAFB17
:10199000FBFA0AF1050A1FFA8AF24FF00A0AB2FBB3
:1019A000FAF202F00104A2EB040ACAF34F034FF665
:1019B000FF7A0AEA0424022B01DBFF2B01DD02235C
:1019C0000024B1F806A04AEA040A4AEA030AA0F889
:1019D00020A0B1F804A0B1F80CB04AEA0B0AB1F8A3
:1019E00002B04AEA0B0AB1F800B04AEA0B0A4AF41C
:1019F000006A4AEA05058583BDE8F08F0021018071
:101A000041808180C180018141818181C181072123
:101A1000018270470021018041808180C1800221C4
:101A2000816000218181704721B1028842F040022B
:101A3000028004E002884FF6BF731A4002807047AC
:101A400021B1828B42F48062828304E0828B4FF664
:101A5000FF331A408283704702884FF2FF731A40A7
:101A6000028002880A4302807047B1F5804F04D19A
:101A7000028842F48042028004E002884BF6FF7341
:101A80001A40028070474FF6FF62914204D00288EC
:101A900042F48072028004E002884FF6FF631A402D
:101AA0000280704721B1828842F00402828004E003
:101AB00082884FF6FB731A408280704721B182887A
:101AC00042F01002828004E082884FF6EF731A40E1
:101AD0008280704730B500220023848B4FF240058E
:101AE0002C40848302240484828B0C88B4F5007F0C
:101AF00001D00C8814B94FF4807308E00C88B4F559
:101B0000407F03D00C88B4F5807F00D100238C88FF
:101B10008D892C434D882C431C4344F4006422439C
:101B2000828330BD0146888970478181704721B129
:101B3000028842F40052028004E002884DF6FF73EE
:101B40001A4002807047018841F48051018070473B
:101B500002460020012901D0108B00E0908A7047D6
:101B60000146088A70471AB183880B43838002E0DC
:101B700083888B438380704730B5002400230C1189
:101B80000125A540ABB2AAB185881D43858014E02C
:101B90000030014000380040003C0040003401406B
:101BA00000500140005401400838024040787D0157
:101BB0000024F40085889D43858030BD02460020C6
:101BC00013890B400BB1012000E000207047CA438D
:101BD00002817047F0B50246002000240023002552
:101BE00001F00F070126BE40B4B20B1101269E4042
:101BF000B3B2968806EA03051689264016B10DB1E0
:101C0000012000E00020F0BD10B5002201F00F041B
:101C10000123A3409AB2D343038110BD10B50446FB
:101C2000FA48844208D101211020FFF711FD00215C
:101C30001020FFF70DFD57E0F548844209D101213E
:101C40004804FFF7F4FC00214FF40030FFF7EFFCED
:101C50004AE0F048844209D101218804FFF7E7FCFB
:101C600000214FF48020FFF7E2FC3DE0EA48844287
:101C700009D10121C804FFF7DAFC00214FF400204C
:101C8000FFF7D5FC30E0E548844209D10121080581
:101C9000FFF7CDFC00214FF48010FFF7C8FC23E0D4
:101CA000DF48844208D101212020FFF7D1FC002128
:101CB0002020FFF7CDFC17E0DA48844209D101214A
:101CC0008807FFF7B4FC00214FF08040FFF7AFFC1E
:101CD0000AE0D548844207D101214005FFF7A7FC5F
:101CE00000216005FFF7A3FC10BD2DE9FF47054665
:101CF0000E460024A14600BFA046B08900B100BF37
:101D00002C8A24F44054F08804432C82AC8941F29C
:101D10000C608443B08831890843718908430443C7
:101D2000AC81AC8A24F44074B0890443AC82684628
:101D3000FFF710FBB548854202D0B948854202D171
:101D4000DDF80C9001E0DDF80890A88900F400406F
:101D500040B109EBC90000EB091031684900B0FB44
:101D6000F1F707E009EBC90000EB091031688900C1
:101D7000B0FBF1F76420B7FBF0F004012009642107
:101D800001FB1078A88900F4004040B1322000EB3C
:101D9000C800B0FBF1F000F00700044308E0322077
:101DA00000EB08106421B0FBF1F000F00F000443D9
:101DB0002C81BDE8FF874FF416510160002181801E
:101DC000C18001810C21418100218181704710B5C2
:101DD00002460020108A20F470600B884C88234350
:101DE0008C882343CC8823431843108210BD0021E4
:101DF000018041808180C180704721B1828942F495
:101E00000052828104E082894DF6FF731A4082817C
:101E10007047028B02F47F420283028B0A430283E3
:101E2000704721B1828942F40042828103E08289B5
:101E3000C2F30E028281704721B1828A42F40062AD
:101E4000828204E0828A4FF2FF731A4082827047D6
:101E5000C1F308028280704701468888C0F30800F9
:101E60007047028A4FF6F0731A400282028A0A43D0
:101E70000282704721B1828942F00202828104E02D
:101E800082894FF6FD731A408281704782894FF232
:101E9000FF731A40828182890A4382817047028AD5
:101EA0004FF6DF731A400282028A0A4302827047A9
:101EB00021B1028A42F48042028204E0028A4BF697
:101EC000FF731A4002827047818941F001018181CC
:101ED000704721B1828A42F00802828204E0828A3D
:101EE0004FF6F7731A4082827047028BD2B2028398
:101EF000028B42EA01220283704721B1828A42F0BA
:101F00002002828204E0828A4FF6DF731A408282C6
:101F1000704721B1828A42F01002828204E0828AF4
:101F20004FF6EF731A4082827047828A4FF6FB7336
:101F30001A408282828A0A438282704721B1828A51
:101F400042F00202828204E0828A4FF6FD731A4058
:101F5000828270471AB1838A0B43838202E0838AAC
:101F60008B4383827047F0B503460024002600258A
:101F7000002040F66A17B94200D100BF1846C1F3ED
:101F8000421401F01F06012707FA06F5012C01D1C2
:101F90000C3004E0022C01D1103000E014301AB1F2
:101FA00007682F43076002E00768AF430760F0BD92
:101FB00002460020B1F5007F00D100BF13880B401E
:101FC0000BB1012000E00020704701F40072B2F56F
:101FD000007F00D100BFCA430280704770B502463F
:101FE000002400230025002040F66A16B14200D1EB
:101FF00000BFC1F3421501F01F03012606FA03F3E7
:10200000012D13D19689334017E0000000100140E4
:102010000044004000480040004C00400050004098
:102020000014014000780040007C0040022D02D1E5
:10203000168A334001E0968A33400C12012606FAD4
:1020400004F41688344013B10CB1012000E00020E4
:1020500070BD10B50022002340F66A14A14200D1E1
:1020600000BF0A1201249440A3B2DC43048010BDD7
:1020700001B502E00098401E009000980028F9D1B8
:1020800008BD10B5034607E018780C78A04201D0CF
:10209000002010BD5B1C491C1000A2F10104A2B27B
:1020A000F2D10120F5E710B557A001F095F900F045
:1020B000F3FA00F041FD5F490860C820FFF7D8FF40
:1020C00000F0DDFC5C4908605A4802680846016877
:1020D0005AA001F081F9584800686649884233D116
:1020E00065A001F079F9002000F0B1FB3B2200214E
:1020F000694800F00DFC684968A001F06DF93B22C9
:1021000000216C4800F095FC6A496BA001F064F96D
:102110003B2268496048FFF7B4FF6D4908700846E4
:102120000078012807D101036A48FEF7C1FF6AA0C1
:1021300001F052F910E04FF480516648FEF7B6FF07
:102140006EA001F049F907E04FF480516148FEF7B5
:10215000ADFF73A001F040F900F057FD10BD10B5C0
:1021600076A001F039F901F014F880A001F034F9FB
:10217000AA204FF05041087082A001F02DF94FF0D5
:1021800050400478214688A001F026F94BF6BB3078
:102190004FF05041488189A001F01EF94FF05040A6
:1021A0004489214680A001F017F94FF0CC304FF060
:1021B000504148618AA001F00FF94FF05040446946
:1021C000214679A001F008F9DD208F4908700A4600
:1021D000084601788DA001F0FFF810BD00F076F9F7
:1021E00000F04DF900F058FA00F06BFF00F0A1F993
:1021F000FFF7B5FF07E00121944800F051F90128ED
:1022000001D1FFF750FFF6E70D0A0D0A0D0AB0AC39
:10221000B6FBC8FC53544D333246343239BFAAB7EB
:10222000A2B0E52057323551313238B2E2CAD40D6E
:102230000A00000060000020640000200D0A466CC7
:10224000617368494420697320307825582C202018
:102250004D616E7566616374757265722044657652
:1022600069636520494420697320307825580D0A38
:10227000000000001840EF000D0ABCECB2E2B5BD52
:1022800053504920464C4153482057323551313242
:102290003820210D0A000000240000200D0AD0B4CF
:1022A000C8EBB5C4CAFDBEDDCEAAA3BA0D0A25731C
:1022B00000000000740000200D0AB6C1B3F6B5C4DA
:1022C000CAFDBEDDCEAAA3BA0D0A25730000000028
:1022D00068000020000C02400D0A31364DB4AED02B
:1022E000D0666C617368285732355131323829B263
:1022F000E2CAD4B3C9B9A6210A0D00000D0A3136CD
:102300004DB4AED0D0666C61736828573235513108
:10231000323829B2E2CAD4CAA7B0DC210A0D0000C3
:102320000D0ABBF1C8A1B2BBB5BD20573235513142
:102330003238204944210A0D000000000D0A0D0A20
:102340000D0AB0ACB6FBC8FC53544D3332463432A0
:1023500039BFAAB7A2B0E520534452414D20B6C1BF
:10236000D0B4B2E2CAD40D0A0D0A00000D0AD6B8E4
:10237000D5EBB7BDCABDB7C3CECA534452414D0D0C
:102380000A0000000D0AD6B8D5EBB7C3CECA534435
:1023900052414DA3ACD0B4C8EBCAFDBEDD3078418C
:1023A00041200D0A00000000B6C1C8A1CAFDBEDD73
:1023B000A3BA30782558200D0A000000D6B8D5EB16
:1023C000B7C3CECA534452414DA3ACD0B4C8EBCA34
:1023D000FDBEDD307842424242200D0A000000007E
:1023E000D6B8D5EBB7C3CECA534452414DA3ACD0F7
:1023F000B4C8EBCAFDBEDD30784343434343434397
:1024000043200D0A00000000000000D00D0ABEF8B5
:10241000B6D4B6A8CEBBB7C3CECA534452414DA31F
:10242000ACD0B4C8EBCAFDBEDD307844442CB6C194
:10243000B3F6CAFDBEDD307825582CB1E4C1BFB576
:10244000D8D6B7CEAA25580D0A00000000000240D9
:10245000704700BFFEE700BFFEE700BFFEE700BF1A
:10246000FEE77047704770477047000001B502E013
:102470000098401E009000980028F9D108BD1CB5B6
:1024800001210846FFF737F80120009000208DF861
:1024900004008DF8070069460B48FEF78BFD1CBD54
:1024A00070B504460D4629462046FEF7E5FD012895
:1024B00008D100BF29462046FEF7DEFD0128F9D0ED
:1024C000012070BD0020FCE7000002401CB5012186
:1024D0000820FFF710F84FF48050009001208DF88D
:1024E000040000208DF8060001208DF80700002070
:1024F0008DF8050069460448FEF75CFD4FF48051F5
:102500000148FEF7D3FD1CBD000C024008B54FF496
:10251000A060FDF789FF25208DF8000001208DF8CF
:1025200001008DF802008DF803006846FDF781FF79
:1025300008BD00B587B001210846FEF7DCFF012188
:102540001020FFF730F800208DF81A0001208DF8D8
:102550001B0002208DF819008DF81800000205906C
:1025600005A94B48FEF726FD02208DF81800400211
:10257000059005A94648FEF71DFD07220A2144489B
:10258000FEF7A3FD072209214148FEF79EFD4FF407
:10259000E13001900020ADF80800ADF80A00ADF878
:1025A0000C00ADF810000C20ADF80E0001A9394860
:1025B000FFF79BFBFFF7AAFF012240F225513548A8
:1025C000FFF7D1FC01213348FFF717FC07B000BD2E
:1025D00070B504460D4629462046FFF739FC00BF7A
:1025E00080212046FFF7E4FC0028F9D070BD70B5CB
:1025F00006460C46002500BF615D3046FFF7E8FF48
:102600006D1C605D0028F7D100BF40213046FFF708
:10261000CFFC0028F9D070BD2DE9F04105460C46ED
:10262000260AE7B231462846FFF712FC00BF802198
:102630002846FFF7BDFC0028F9D039462846FFF7A9
:1026400007FC00BF80212846FFF7B2FC0028F9D024
:10265000BDE8F08170B504460D46E1B20D48FFF7C4
:10266000F7FB00BF80210B48FFF7A2FC0028F9D040
:10267000204670BD10B5044600BF20210548FFF775
:1026800097FC0028F9D00348FFF7E6FB10BD0000D7
:10269000000002400010014000B587B00121202059
:1026A000FEF729FF01210805FEF77DFF052207211E
:1026B000FE48FEF70AFD05220821FC48FEF705FD4D
:1026C00005220921F948FEF700FD80200090022034
:1026D0008DF805008DF8040000208DF806008DF8B7
:1026E00007006946F148FEF765FC4FF480700090E2
:1026F0006946EE48FEF75EFC4FF4007000906946B4
:10270000EA48FEF757FC4020009001208DF80400B5
:102710006946E648FEF74EFC4020E449183108803F
:102720000020ADF808004FF48270ADF80A000020D8
:10273000ADF80C000220ADF80E000120ADF810003D
:102740004002ADF812000020ADF81400ADF81600FC
:102750000720ADF8180002A9D548FFF76BF8012152
:10276000D348FFF761F907B000BD10B50446214614
:10277000D0A000F031FE002010BD10B504464FF48B
:102780008050D84908600AE0D6490868411ED54AF9
:10279000116020B90020FFF7E8FFC0B210BD022190
:1027A000C348FFF70BFA0028EED02146C048FFF7D8
:1027B000BCF94FF48050CB4908600AE0C949086869
:1027C000411EC84A116020B90120FFF7CEFFC0B2F8
:1027D000E4E70121B648FFF7F1F90028EED0B4484C
:1027E000FFF7A0F9C0B2D9E710B500244020AF49E7
:1027F0001A3108800520FFF7C0FF4FF48050B94917
:10280000086000BFFF20FFF7B8FF0446B54908681D
:10281000411EB44A116018B90420FFF7A6FF10BD8D
:1028200004F001000028EDD14020A04918310880B3
:1028300000BFF4E710B540209C491A3108800620FB
:10284000FFF79BFF402099491831088010BD10B553
:102850000446FFF7EFFFFFF7C7FF402093491A3107
:1028600008802020FFF789FFC4F30740FFF785FFAA
:10287000C4F30720FFF781FFE0B2FFF77EFF40209F
:102880008A4918310880FFF7AFFF10BD10B5FFF778
:10289000D1FF402085491A310880C720FFF76DFF1E
:1028A0004020824918310880FFF79EFF10BD70B5A7
:1028B00005460C461646FFF7BDFF40207B491A31FE
:1028C00008800220FFF759FFC4F30740FFF755FFC8
:1028D000C4F30720FFF751FFE0B2FFF74EFFB6F554
:1028E000807F04DD4FF480767FA000F075FD03E06B
:1028F0002878FFF742FF6D1C3000A6F101018EB26F
:10290000F6D14020694918310880FFF76DFF70BD8E
:102910002DE9F05F07460E4614464FF00008C14609
:10292000C2460025AB4606F0FF0ACAF10000C5B258
:102930002046E11704EB1161C1F30728E11704EB0E
:1029400011610912A4EB012101F0FF09BAF1000F96
:1029500020D1B8F1000F05D1224631463846FFF7A5
:10296000A6FF64E009E04FF4807231463846FFF775
:102970009EFF06F5807607F580775FEA0800A8F1EC
:10298000010101F0FF08EED14A4631463846FFF713
:102990008EFF4CE0B8F1000F18D1A94510DDA9EB6E
:1029A000050000F0FF0B2A4631463846FFF77FFF4F
:1029B0002E442F445A4631463846FFF778FF36E01A
:1029C000224631463846FFF772FF30E0601B84B282
:1029D0002046E11704EB1161C1F30728E11704EB6E
:1029E00011610912A4EB012101F0FF092A463146C9
:1029F0003846FFF75CFF2E442F4409E04FF4807205
:102A000031463846FFF753FF06F5807607F58077A5
:102A10005FEA0800A8F1010101F0FF08EED1B9F169
:102A2000000F04D04A4631463846FFF740FFBDE864
:102A3000F09F70B505460C46164640201B491A31DA
:102A400008800320FFF799FEC4F30740FFF795FEC7
:102A5000C4F30720FFF791FEE0B2FFF78EFE04E01B
:102A6000FF20FFF78AFE28706D1C3000A6F10101DF
:102A70008EB2F5D140200D491831088070BD2DE986
:102A8000F0410024002500260027402007491A3184
:102A900008809F20FFF771FEFF20FFF76EFE0546BE
:102AA000FF20FFF76AFE0646FF2037E000140240D1
:102AB000005001403C3C2D464C4153482D4552525C
:102AC0004F522D3E3E2053504920B5C8B4FDB3AC03
:102AD000CAB1216572726F72436F6465203D202513
:102AE000640A00006C0000203C3C2D464C415348D9
:102AF0002D4552524F522D3E3E205350495F464C79
:102B00004153485F50616765577269746520746FFF
:102B10006F206C61726765210A000000FFF72DFECF
:102B20000746402045490880280440EA062040EA3C
:102B300007042046BDE8F08110B5002440203F493D
:102B4000891C0880AB20FFF718FEFF20FFF715FE59
:102B5000FF20FFF712FEFF20FFF70FFEFF20FFF719
:102B60000CFE0446402035490880204610BD10B5B3
:102B7000044640203149891C08800320FFF7FDFDF1
:102B8000C4F30740FFF7F9FDC4F30720FFF7F5FD95
:102B9000E0B2FFF7F2FD10BD10B5FF20FFF7EDFD2D
:102BA00010BD10B504464FF480502549086009E077
:102BB00023490868411E224A116018B90220FFF714
:102BC000D4FD10BD02211F48FEF7F8FF0028EFD00A
:102BD00021461C48FEF7A9FF4FF4805018490860B1
:102BE00009E017490868411E154A116018B9032009
:102BF000FFF7BBFDE5E701211248FEF7DFFF0028E4
:102C0000EFD01048FEF78EFFDBE710B540200B49F0
:102C1000891C0880B920FFF7B0FD402007490880D3
:102C200010BD10B540200549891C0880AB20FFF776
:102C3000A4FD40200149088010BD00001814024086
:102C40006C0000200050014001B581B000200090D0
:102C5000FE4901984843009002E00098401E009011
:102C600000980028F9D10CBD1CB50121FC20FEF70D
:102C700042FC02208DF804008DF8050000208DF83C
:102C800006008DF80700012000906946F048FEF725
:102C900091F90C220021EE48FEF717FA022000906D
:102CA0006946EB48FEF786F90C220121E848FEF759
:102CB0000CFA042000906946E548FEF77BF90C22E7
:102CC0000221E348FEF701FA082000906946E04837
:102CD000FEF770F90C220321DD48FEF7F6F910200B
:102CE00000906946DA48FEF765F90C220421D848BD
:102CF000FEF7EBF9202000906946D548FEF75AF917
:102D00000C220521D248FEF7E0F94FF480500090E4
:102D10006946CF48FEF74EF90C221146CC48FEF723
:102D2000D4F94FF4005000906946C948FEF742F9C3
:102D30000C220D21C648FEF7C8F94FF480400090E0
:102D40006946C348FEF736F90C220E21C048FEF74B
:102D5000BCF94FF4004000906946BD48FEF72AF9DF
:102D60000C220F21BA48FEF7B0F901200090694605
:102D7000B848FEF71FF90C220021B648FEF7A5F966
:102D8000022000906946B348FEF714F90C22012195
:102D9000B048FEF79AF9102000906946AD48FEF75A
:102DA00009F90C220421AB48FEF78FF9202000908E
:102DB0006946A848FEF7FEF80C220521A548FEF753
:102DC00084F94FF4804000906946A348FEF7F2F87A
:102DD0000C220E21A048FEF778F94FF40040009035
:102DE00069469D48FEF7E6F80C220F219A48FEF747
:102DF0006CF90120009069469748FEF7DBF80C2239
:102E000000219548FEF761F902200090694692483A
:102E1000FEF7D0F80C2201218F48FEF756F98020EA
:102E2000009069468D48FEF7C5F80C2207218B48B3
:102E3000FEF74BF94FF48070009069468748FEF723
:102E4000B9F80C2208218548FEF73FF94FF40070CD
:102E5000009069468148FEF7ADF80C2209217F48B1
:102E6000FEF733F94FF48060009069467B48FEF727
:102E7000A1F80C220A217948FEF727F94FF40060E7
:102E8000009069467548FEF795F80C220B217348AF
:102E9000FEF71BF94FF48050009069466F48FEF72B
:102EA00089F80C2211466D48FEF70FF94FF40050D7
:102EB000009069466948FEF77DF80C220D216748AD
:102EC000FEF703F94FF48040009069466348FEF72F
:102ED00071F80C220E216148FEF7F7F84FF400401C
:102EE000009069465D48FEF765F80C220F215B48AB
:102EF000FEF7EBF84FF48070009069465648FEF7F5
:102F000059F80C2208215448FEF7DFF84FF40070FE
:102F1000009069465048FEF74DF80C2209214E48B2
:102F2000FEF7D3F84FF48060009069464A48FEF7F8
:102F300041F80C220A214848FEF7C7F840200090CB
:102F400069464748FEF736F80C2206214448FEF74A
:102F5000BCF80120009069464248FEF72BF80C228D
:102F600000214048FEF7B1F84FF400600090694638
:102F70003748FEF71FF80C220B213548FEF7A5F85D
:102F80004FF40040009069463248FEF713F80C22D7
:102F90000F213048FEF799F84FF480700090694691
:102FA0002C48FEF707F80C2208212A48FEF78DF876
:102FB0008020009069462A48FDF7FCFF0C2207217B
:102FC0002748FEF782F80220009069462348FDF763
:102FD000F1FF0C2201212148FEF777F80120009033
:102FE00069461E48FDF7E6FF0C2200211B48FEF74C
:102FF0006CF81CBD1FB50024012000900820019032
:1030000000200290039000BF20210120FDF79AFECE
:103010000028F9D16846FDF7EEFD0A20FFF714FEFF
:10302000022000900820019000200290039000BF31
:1030300020210120FDF786FE0028F9D16846FDF722
:10304000DAFD03200090082001900DE0A086010029
:103050000014024000180240000C02400010024020
:10306000001C024000080240022002900020039051
:1030700000BF20210120FDF765FE0028F9D1684638
:10308000FDF7B9FD40F222240420009008200190B1
:1030900001200290039400BF20210120FDF752FE81
:1030A0000028F9D16846FDF7A6FD40F26A50FDF709
:1030B000C1FD00BF20210120FDF744FE0028F9D109
:1030C0001FBD00B593B0FFF7CFFD01210846FEF705
:1030D00048FA022001900720029004200390072064
:1030E000049002200590069007900120089000208F
:1030F000099004200A9010200B9040200C90800032
:103100000D9000200E904FF400600F904000109042
:103110000020119001A8129008A8FDF7ABFCFFF762
:1031200069FF13B000BDF8B504460E46154600967B
:1031300000210120FDF792FD00BF20210120FDF7B5
:1031400001FE0028F9D108E002CC0098A0F140501F
:1031500001600098001D00906D1E002DF4D1F8BD97
:10316000F8B504460E461546009600BF2021012002
:10317000FDF7E8FD0028F9D108E00098A0F14050E3
:10318000006801C40098001D00906D1E002DF4D150
:10319000F8BD2DE9F0410024002500270026A046B7
:1031A0002DA000F019F900BF04E00021A4F1405067
:1031B0000170641CB4F5000FF7D3002405E0281952
:1031C000C1B2A4F140500170641CB4F5000FF6D3F5
:1031D00000240DE0A4F1405007782819C0B2B8428D
:1031E00005D02DA000F0F8F80020BDE8F081641CA7
:1031F000B4F5000FEED3002405E000216000A0F13B
:1032000040500180641CB4F5800FF6D3002406E022
:10321000301981B26000A0F140500180641CB4F507
:10322000800FF5D300240EE06000A0F14050B0F80C
:103230000080301980B2404504D021A000F0CCF8C5
:103240000020D2E7641CB4F5800FEDD326A000F077
:10325000C3F80120C9E700003C3C2D534452414DC6
:103260002D494E464F2D3E3E20D5FDD4DABCECB262
:10327000E2534452414DA3ACD2D438CEBBA1A231CB
:1032800036CEBBB5C4B7BDCABDB6C1D0B4736472C7
:10329000616D2E2E2E0A00003C3C2D534452414DB0
:1032A0002D4552524F522D3E3E2038CEBBCAFDBE58
:1032B000DDB6C1D0B4B4EDCEF3A3A10A0000000086
:1032C0003C3C2D534452414D2D4552524F522D3EC0
:1032D0003E203136CEBBCAFDBEDDB6C1D0B4B4EDA2
:1032E000CEF3A3A10A0000003C3C2D534452414DB3
:1032F0002D494E464F2D3E3E20534452414DB6C1BE
:10330000D0B4B2E2CAD4D5FDB3A3A3A10A00000091
:103310002DE9F05F0546002092469B46884606460A
:10332000814640241BE0284641464746224600F09D
:1033300042F853465A46C01A914110D311461846D6
:10334000224600F029F82D1A67EB01084F46224665
:103350000120002100F020F817EB00094E41201E4B
:10336000A4F10104DFDC484631462A464346BDE865
:10337000F09F0000064C074D06E0E06840F00103B6
:1033800094E8070098471034AC42F6D3FCF712FFDC
:10339000F036000810370008202A04DB203A00FA33
:1033A00002F1002070479140C2F1200320FA03F39C
:1033B000194390407047202A04DB203A21FA02F09A
:1033C0000021704721FA02F3D040C2F1200291405F
:1033D00008431946704700000FB4054B10B503A908
:1033E000044A029800F018F810BC5DF814FB0000C5
:1033F000552600087000002002E008C8121F08C10E
:10340000002AFAD170477047002001E001C1121F65
:10341000002AFBD1704700002DE9FF4F8DB09B467D
:103420000F460446002606E025280BD05A460F9981
:103430009047641C761C20780028F5D111B03046E6
:10344000BDE8F08F0025A8460122974900E005431A
:1034500014F8013F203B02FA03F00842F7D120782C
:103460002E2817D114F8010F45F004052A280ED094
:103470006FF02F022078A0F1300109290AD808EB5B
:10348000880102EB410100EB0108641CF2E757F8E8
:10349000048B641C20786C280DD004DC4C2812D0DE
:1034A0006A2811D104E074280DD07A280CD10AE0E2
:1034B00045F4001507E0617845F48015814202D19A
:1034C000641C05F58015641C2278692A45D008DC47
:1034D000002AB3D0582A67D0632A10D0642A08D1B2
:1034E0003BE0702A65D0732A13D0752A5AD0782A07
:1034F0005AD010465A460F999047761CD1E017F8DB
:10350000040B8DF8000000208DF80100E946012031
:1035100003E057F8049B4FF0FF3069074FF00005B8
:1035200001D40AE06D1C45450DDA8542FADB19F835
:1035300005100029F6D106E06D1C8542FCDB19F868
:1035400005100029F8D12E4404E019F8010B5A4661
:103550000F9990476D1EF8D2A3E00A200021CDE913
:103560000801C5F3025002280BD001CFC117002972
:103570000DDA4FF0000CD0EB0C006CEB01012D23A9
:1035800008E0FF1D27F00707F7E80201EFE72B052A
:1035900004D52B238DF8283001233BE0EB0739D0ED
:1035A0002023F7E70A2000E010200021CDE90801E0
:1035B00007E01020002145F00405CDE908014FF097
:1035C0000808C5F3025002280FD001CF00214FF0A8
:1035D000000A2B071FD5702A0DD0DDE908C38CF037
:1035E000100C5CEA030C0CD015E0FF1D27F0070758
:1035F000F7E80201EBE740228DF828204FF0010A9E
:103600000BE050EA010306D030238DF828308DF806
:10361000292002239A46582A04D024A20DF1200919
:103620000B9209E026A2F9E7DDE90823FFF770FE17
:103630000B9B9B5C09F8013D50EA0102F4D1ADEB14
:10364000090020300890680701D44FF0010808995C
:10365000884502DDA8EB010000E00020804600253F
:1036600006E00AA85A46405D0F9990476D1C761CEB
:103670005545F6DB04E030205A460F999047761CFA
:10368000B8F10001A8F10108F5DC05E019F8010B1B
:103690005A460F999047761C0899481E08900029B1
:1036A000F4DC641CC7E60000092801003031323325
:1036B000343536373839616263646566000000006E
:1036C0003031323334353637383941424344454658
:1036D000000000000F0000000F000000FF000000CD
:1036E0000F0000000F0000000F00000000000000AD
:1036F000103700080000002074000000F8330008B4
:1037000084370008740000203C04000008340008DE
:103710000095BA0A00000000000000000102030446
:103720000607080900000000010203040102030467
:1037300006070809B8D0D0BBC4FACAB9D3C3B0AC25
:10374000B6FBC8FC53544D333246343239BFAAB7A6
:10375000A2B0E50D0A687474703A2F2F7777772E30
:103760006C63746563682D696E632E636F6D2F00E3
:1037700000000000000000000000000000A00000A9
:043780000000000045
:04000005080001AD41
:00000001FF
